S00F0000436F6E74726F6C2E7372656334
S11300000C942A000C943F000C943F000C943F0085
S11300100C943F000C943F000C943F000C943F0060
S11300200C943F000C943F000C943F000C943F0050
S11300300C943F000C943F000C943F000C943F0040
S11300400C943F000C943F000C943F000C943F0030
S11300500C943F0011241FBECFE5D8E0DEBFCDBF16
S113006010E0A0E6B0E0E8E1F1E002C005900D92F6
S1130070A038B107D9F70E9467000C948A000C9449
S11300800000982F40E050E080E048305105F4F43F
S113009021E030E0042E02C0220F331F0A94E2F75D
S11300A0292330E0042E02C0359527950A94E2F7FF
S11300B067E070E0641B750B332702C0220F331F07
S11300C06A95E2F7822B4F5F5F4FDFCF089580E898
S11300D084BF84BF80EF87BB8FEF8ABB84BBCFEF25
S11300E02C2F30E086B38F7090E028173907C1F3C6
S11300F0C6B3CF708C2F0E94410082958F70E82F79
S1130100F0E0EE0FFF1FE05AFF4F80818BBB81812F
S10B011085BBE6CFF894FFCF94
S11301181100020508000605800703050409030900
S1130128000501050109400400090209050521002B
S9030000FC
