:100000000C942A000C943F000C943F000C943F0089
:100010000C943F000C943F000C943F000C943F0064
:100020000C943F000C943F000C943F000C943F0054
:100030000C943F000C943F000C943F000C943F0044
:100040000C943F000C943F000C943F000C943F0034
:100050000C943F0011241FBECFE5D8E0DEBFCDBF1A
:1000600010E0A0E6B0E0E0E1F1E002C005900D9202
:10007000A037B107D9F70E9467000C9486000C9452
:100080000000982F40E050E080E048305105F4F443
:1000900021E030E0042E02C0220F331F0A94E2F761
:1000A000292330E0042E02C0359527950A94E2F703
:1000B00067E070E0641B750B332702C0220F331F0B
:1000C0006A95E2F7822B4F5F5F4FDFCF089580E89C
:1000D00084BF84BF17BA8FEF8ABB84BBCFEF86B3D0
:1000E000C817E9F3C6B3EC2FF0E0EE0FFF1FE05A9C
:1000F000FF4FD08181810E9441008BBBD5BB83ED36
:1001000090E30197F1F700C00000E9CFF894FFCF2A
:100110001B80298011B622B63146424645A30020F5
:00000001FF
