:100000000C942A000C943C000C943C000C943C0092
:100010000C943C000C943C000C943C000C943C0070
:100020000C943C000C943C000C943C000C943C0060
:100030000C943C000C943C000C943C000C943C0050
:100040000C943C000C943C000C943C000C943C0040
:100050000C943C0011241FBECFE5D8E0DEBFCDBF1D
:1000600020E0A0E6B0E001C01D92A03AB207E1F79F
:100070000E944E000C94B1000C94000080E090E0CF
:100080008032910554F4FC01E058FF4F1082FC01CE
:10009000E05AFF4F10820196F3CF089580E884BFA5
:1000A00084BF80EE8ABB17BA8FEF84BB0E943E00EC
:1000B00090E080E002C08D2F912FC9B3DC2FDF715B
:1000C00016B3C3FF09C00E943E0083ED90E3019781
:1000D000F1F700C0000031C0282F2D2722FF2DC0CE
:1000E00082FF25C080FF23C084FF11C0E92FEF707D
:1000F000F0E0892F90E09595879595958795959552
:10010000879595958795E05AFF4F808310C0E92F1A
:10011000EF70F0E0892F90E09595879595958795FC
:100120009595879595958795E058FF4F808383ED4A
:1001300090E30197F1F700C00000C1FFBCCFC4FFFE
:1001400008C0E12FEF70F0E0E05AFF4F808185BBDF
:10015000B2CFE12FEF70F0E0E058FF4F808185BB18
:06016000AACFF894FFCFC6
:00000001FF
