:100000000C942A000C943F000C943F000C943F0089
:100010000C943F000C943F000C943F000C943F0064
:100020000C943F000C943F000C943F000C943F0054
:100030000C943F000C943F000C943F000C943F0044
:100040000C943F000C943F000C943F000C943F0034
:100050000C943F0011241FBECFE5D8E0DEBFCDBF1A
:1000600010E0A0E6B0E0EEECF0E002C005900D92EA
:10007000A038B107D9F70E9441000C9465000C9498
:10008000000080E884BF84BF80EF87BB8FEF8ABB0E
:1000900084BB4FEF242F30E086B38F7090E0281799
:1000A0003907C1F346B34F70E42FF0E0EE0FFF1FA6
:1000B000E05AFF4F80818BBB818185BB83ED90E34C
:0E00C0000197F1F700C00000E5CFF894FFCFE4
:1000CE00110002050800060580070305040903094F
:1000DE00000501050109400400090209050521007A
:00000001FF
