:100000000C942A000C943C000C943C000C943C0092
:100010000C943C000C943C000C943C000C943C0070
:100020000C943C000C943C000C943C000C943C0060
:100030000C943C000C943C000C943C000C943C0050
:100040000C943C000C943C000C943C000C943C0040
:100050000C943C0011241FBECFE5D8E0DEBFCDBF1D
:1000600020E0A0E6B0E001C01D92A836B207E1F79B
:100070000E943E000C949D000C94000080E884BF18
:1000800084BF17BA11BA8FEF8ABB80EF84BB30E010
:1000900001C0322FE6B340B323B3AE2FB0E0B59525
:1000A000A795B595A795B595A795B595A795A7706B
:1000B000BB27A05ABF4F8C9150E1859FC0011124EE
:1000C000E770F0E0E05AFF4F9081892B8BBB22FF55
:1000D00012C080E090E08830910534F4FC01E05AD1
:1000E000FF4F10820196F7CF87EA91E60197F1F76B
:1000F00000C00000CFCF832F822781FFCACF31FFFE
:1001000014C030FF12C0E42FE770F0E0842F90E0BD
:1001100095958795959587959595879595958795C7
:10012000E05AFF4F8083407F42BB87EA91E6019708
:0E013000F1F700C00000322FADCFF894FFCFE2
:00000001FF
