S00B0000414C552E7372656337
S11300000C942A000C9434000C9434000C943400A6
S11300100C9434000C9434000C9434000C9434008C
S11300200C9434000C9434000C9434000C9434007C
S11300300C9434000C9434000C9434000C9434006C
S11300400C9434000C9434000C9434000C9434005C
S11300500C94340011241FBECFE5D8E0DEBFCDBF21
S11300600E9436000C9473000C94000080E884BF56
S113007084BF17BA88EF81BB8FE884BB90B39770B5
S113008086B38F7026B3422F42954F70911102C0F0
S1130090840F24C0913011F4841B20C0923011F4D9
S11300A084231CC0933011F4842B18C0943019F4A9
S11300B0842B809513C0953029F401C0880F4A958C
S11300C0EAF70CC0963049F4282F30E0C90102C089
S11300D0959587954A95E2F701C080E08F7009F401
S10D00E0806885BBCBCFF894FFCFF6
S9030000FC
