S01A0000446174615F6D656D6F72795F6E6F726D616C2E73726563B0
S11300000C942A000C943C000C943C000C943C008E
S11300100C943C000C943C000C943C000C943C006C
S11300200C943C000C943C000C943C000C943C005C
S11300300C943C000C943C000C943C000C943C004C
S11300400C943C000C943C000C943C000C943C003C
S11300500C943C0011241FBECFE5D8E0DEBFCDBF19
S113006020E0A0E6B0E001C01D92A038B207E1F79D
S11300700E944A000C9490000C94000080E090E0F0
S11300808032910534F4FC01E05AFF4F108201964E
S1130090F7CF089580E884BF84BF80EF8ABB17BA86
S11300A08FEF84BB0E943E0090E080E002C08D2F61
S11300B0912FC9B3DC2FDF7116B3C3FF09C00E94AF
S11300C03E0083ED90E30197F1F700C000001EC0ED
S11300D0282F2D2722FF1AC082FF12C080FF10C0D4
S11300E0E92FEF70F0E0892F90E09595879595952D
S11300F087959595879595958795E05AFF4F8083C9
S113010083ED90E30197F1F700C00000C1FFCFCF6A
S1130110E12FEF70F0E0E05AFF4F808185BBC7CF3D
S1070120F894FFCF7D
S9030000FC
