S01700004763634170706C69636174696F6E312E737265635B
S11300000C942A000C9434000C9434000C943400A6
S11300100C9434000C9434000C9434000C9434008C
S11300200C9434000C9434000C9434000C9434007C
S11300300C9434000C9434000C9434000C9434006C
S11300400C9434000C9434000C9434000C9434005C
S11300500C94340011241FBECFE5D8E0DEBFCDBF21
S11300600E9436000C944B000C9400008FEF8ABB66
S113007081E090E08BBB01968436910511F480E019
S113008090E02FE936E841E0215030404040E1F76C
S10D009000C00000EFCFF894FFCF8A
S9030000FC
